{
  "address": "0xCf7Ed3AccA5a467e9e704C703E8D87F634fB0Fc9",
  "abi": [
    {
      "inputs": [
        {
          "internalType": "address",
          "name": "vrfCoordinatorV2",
          "type": "address"
        },
        {
          "internalType": "uint256",
          "name": "entranceFee",
          "type": "uint256"
        },
        {
          "internalType": "bytes32",
          "name": "gasLane",
          "type": "bytes32"
        },
        {
          "internalType": "uint64",
          "name": "subscriptionId",
          "type": "uint64"
        },
        {
          "internalType": "uint32",
          "name": "callbackGasLimit",
          "type": "uint32"
        },
        {
          "internalType": "uint256",
          "name": "interval",
          "type": "uint256"
        }
      ],
      "stateMutability": "nonpayable",
      "type": "constructor"
    },
    {
      "inputs": [],
      "name": "Lottery_NotEnoughFeeEntered",
      "type": "error"
    },
    {
      "inputs": [],
      "name": "Lottery_NotOpen",
      "type": "error"
    },
    {
      "inputs": [],
      "name": "Lottery_TransferFailed",
      "type": "error"
    },
    {
      "inputs": [
        {
          "internalType": "uint256",
          "name": "currentBalance",
          "type": "uint256"
        },
        {
          "internalType": "uint256",
          "name": "numOfPlayers",
          "type": "uint256"
        },
        {
          "internalType": "uint256",
          "name": "contractState",
          "type": "uint256"
        }
      ],
      "name": "Lottery_UpkeepNotNeeded",
      "type": "error"
    },
    {
      "inputs": [
        {
          "internalType": "address",
          "name": "have",
          "type": "address"
        },
        {
          "internalType": "address",
          "name": "want",
          "type": "address"
        }
      ],
      "name": "OnlyCoordinatorCanFulfill",
      "type": "error"
    },
    {
      "anonymous": false,
      "inputs": [
        {
          "indexed": true,
          "internalType": "address",
          "name": "player",
          "type": "address"
        }
      ],
      "name": "LotteryEnter",
      "type": "event"
    },
    {
      "anonymous": false,
      "inputs": [
        {
          "indexed": false,
          "internalType": "uint256",
          "name": "requestId",
          "type": "uint256"
        }
      ],
      "name": "RequestedLotteryWinner",
      "type": "event"
    },
    {
      "anonymous": false,
      "inputs": [
        {
          "indexed": true,
          "internalType": "address",
          "name": "winner",
          "type": "address"
        }
      ],
      "name": "WinnerPicked",
      "type": "event"
    },
    {
      "inputs": [
        {
          "internalType": "bytes",
          "name": "checkData",
          "type": "bytes"
        }
      ],
      "name": "checkUpkeep",
      "outputs": [
        {
          "internalType": "bool",
          "name": "upkeepNeeded",
          "type": "bool"
        },
        {
          "internalType": "bytes",
          "name": "",
          "type": "bytes"
        }
      ],
      "stateMutability": "nonpayable",
      "type": "function"
    },
    {
      "inputs": [],
      "name": "enterLottery",
      "outputs": [],
      "stateMutability": "payable",
      "type": "function"
    },
    {
      "inputs": [],
      "name": "getEntranceFee",
      "outputs": [
        {
          "internalType": "uint256",
          "name": "",
          "type": "uint256"
        }
      ],
      "stateMutability": "view",
      "type": "function"
    },
    {
      "inputs": [],
      "name": "getGasLane",
      "outputs": [
        {
          "internalType": "bytes32",
          "name": "",
          "type": "bytes32"
        }
      ],
      "stateMutability": "view",
      "type": "function"
    },
    {
      "inputs": [],
      "name": "getGasLimit",
      "outputs": [
        {
          "internalType": "uint32",
          "name": "",
          "type": "uint32"
        }
      ],
      "stateMutability": "view",
      "type": "function"
    },
    {
      "inputs": [],
      "name": "getInterval",
      "outputs": [
        {
          "internalType": "uint256",
          "name": "",
          "type": "uint256"
        }
      ],
      "stateMutability": "view",
      "type": "function"
    },
    {
      "inputs": [],
      "name": "getLatestTimestamp",
      "outputs": [
        {
          "internalType": "uint256",
          "name": "",
          "type": "uint256"
        }
      ],
      "stateMutability": "view",
      "type": "function"
    },
    {
      "inputs": [],
      "name": "getLotteryState",
      "outputs": [
        {
          "internalType": "enum Lottery.LotteryState",
          "name": "",
          "type": "uint8"
        }
      ],
      "stateMutability": "view",
      "type": "function"
    },
    {
      "inputs": [],
      "name": "getNumWords",
      "outputs": [
        {
          "internalType": "uint256",
          "name": "",
          "type": "uint256"
        }
      ],
      "stateMutability": "pure",
      "type": "function"
    },
    {
      "inputs": [],
      "name": "getNumberOfPlayers",
      "outputs": [
        {
          "internalType": "uint256",
          "name": "",
          "type": "uint256"
        }
      ],
      "stateMutability": "view",
      "type": "function"
    },
    {
      "inputs": [
        {
          "internalType": "uint256",
          "name": "index",
          "type": "uint256"
        }
      ],
      "name": "getPlayer",
      "outputs": [
        {
          "internalType": "address",
          "name": "",
          "type": "address"
        }
      ],
      "stateMutability": "view",
      "type": "function"
    },
    {
      "inputs": [],
      "name": "getPlayers",
      "outputs": [
        {
          "internalType": "address payable[]",
          "name": "",
          "type": "address[]"
        }
      ],
      "stateMutability": "view",
      "type": "function"
    },
    {
      "inputs": [],
      "name": "getRecentWinner",
      "outputs": [
        {
          "internalType": "address",
          "name": "",
          "type": "address"
        }
      ],
      "stateMutability": "view",
      "type": "function"
    },
    {
      "inputs": [],
      "name": "getRequestConfirmations",
      "outputs": [
        {
          "internalType": "uint256",
          "name": "",
          "type": "uint256"
        }
      ],
      "stateMutability": "pure",
      "type": "function"
    },
    {
      "inputs": [],
      "name": "getSubscriptionId",
      "outputs": [
        {
          "internalType": "uint64",
          "name": "",
          "type": "uint64"
        }
      ],
      "stateMutability": "view",
      "type": "function"
    },
    {
      "inputs": [
        {
          "internalType": "bytes",
          "name": "",
          "type": "bytes"
        }
      ],
      "name": "performUpkeep",
      "outputs": [],
      "stateMutability": "nonpayable",
      "type": "function"
    },
    {
      "inputs": [
        {
          "internalType": "uint256",
          "name": "requestId",
          "type": "uint256"
        },
        {
          "internalType": "uint256[]",
          "name": "randomWords",
          "type": "uint256[]"
        }
      ],
      "name": "rawFulfillRandomWords",
      "outputs": [],
      "stateMutability": "nonpayable",
      "type": "function"
    }
  ],
  "transactionHash": "0xf83f93b809db581979f4d6f614a766b41f35876a161393effd92820ef352d9be",
  "args": [
    "0x5FbDB2315678afecb367f032d93F642f64180aa3",
    "1000000000000000",
    "0x474e34a077df58807dbe9c96d3c009b23b3c6d0cce433e59bbf5b34f823bc56c",
    "1",
    "500000",
    "30"
  ],
  "numDeployments": 1,
  "solcInputHash": "1e54bced0869807bc5bfb0f23dfd90b8",
  "bytecode": "0x6101606040523480156200001257600080fd5b5060405162001a9438038062001a948339818101604052810190620000389190620001ad565b858073ffffffffffffffffffffffffffffffffffffffff1660808173ffffffffffffffffffffffffffffffffffffffff1660601b81525050508460a081815250508573ffffffffffffffffffffffffffffffffffffffff1660c08173ffffffffffffffffffffffffffffffffffffffff1660601b815250508360e081815250508267ffffffffffffffff166101008167ffffffffffffffff1660c01b815250508163ffffffff166101208163ffffffff1660e01b815250506000600160146101000a81548160ff02191690836001811115620001195762000118620002b5565b5b0217905550426002819055508061014081815250505050505050506200036b565b6000815190506200014b81620002e9565b92915050565b600081519050620001628162000303565b92915050565b60008151905062000179816200031d565b92915050565b600081519050620001908162000337565b92915050565b600081519050620001a78162000351565b92915050565b60008060008060008060c08789031215620001cd57620001cc620002e4565b5b6000620001dd89828a016200013a565b9650506020620001f089828a0162000168565b95505060406200020389828a0162000151565b94505060606200021689828a0162000196565b93505060806200022989828a016200017f565b92505060a06200023c89828a0162000168565b9150509295509295509295565b6000620002568262000267565b9050919050565b6000819050919050565b600073ffffffffffffffffffffffffffffffffffffffff82169050919050565b6000819050919050565b600063ffffffff82169050919050565b600067ffffffffffffffff82169050919050565b7f4e487b7100000000000000000000000000000000000000000000000000000000600052602160045260246000fd5b600080fd5b620002f48162000249565b81146200030057600080fd5b50565b6200030e816200025d565b81146200031a57600080fd5b50565b620003288162000287565b81146200033457600080fd5b50565b620003428162000291565b81146200034e57600080fd5b50565b6200035c81620002a1565b81146200036857600080fd5b50565b60805160601c60a05160c05160601c60e0516101005160c01c6101205160e01c61014051611698620003fc600039600081816106770152610b2801526000818161040a0152610c3e0152600081816108360152610c1b01526000818161069f0152610bfa01526000610bbe0152600081816103e20152610732015260008181610430015261048401526116986000f3fe6080604052600436106100fe5760003560e01c80636e04ff0d11610095578063c1af578511610064578063c1af578514610316578063de3d9fb714610320578063e55ae4e81461034b578063f43b52cb14610388578063fd6673f5146103b3576100fe565b80636e04ff0d146102575780638b5b9ccc1461029557806391ad27b4146102c0578063c19dd76b146102eb576100fe565b8063473f1ddc116100d1578063473f1ddc146101ab57806353a2c19a146101d65780635f1b0fd8146102015780636b68c03c1461022c576100fe565b806309bc33a7146101035780631a93d1c31461012e5780631fe543e3146101595780634585e33b14610182575b600080fd5b34801561010f57600080fd5b506101186103de565b6040516101259190611262565b60405180910390f35b34801561013a57600080fd5b50610143610406565b60405161015091906112b4565b60405180910390f35b34801561016557600080fd5b50610180600480360381019061017b9190610f79565b61042e565b005b34801561018e57600080fd5b506101a960048036038101906101a49190610ed2565b6104ee565b005b3480156101b757600080fd5b506101c0610573565b6040516101cd9190611143565b60405180910390f35b3480156101e257600080fd5b506101eb61059d565b6040516101f89190611262565b60405180910390f35b34801561020d57600080fd5b506102166105ac565b6040516102239190611262565b60405180910390f35b34801561023857600080fd5b506102416105b9565b60405161024e9190611247565b60405180910390f35b34801561026357600080fd5b5061027e60048036038101906102799190610ed2565b6105d0565b60405161028c9291906111a9565b60405180910390f35b3480156102a157600080fd5b506102aa6105e5565b6040516102b79190611187565b60405180910390f35b3480156102cc57600080fd5b506102d5610673565b6040516102e29190611262565b60405180910390f35b3480156102f757600080fd5b5061030061069b565b60405161030d91906111d9565b60405180910390f35b61031e6106c3565b005b34801561032c57600080fd5b50610335610832565b60405161034291906112cf565b60405180910390f35b34801561035757600080fd5b50610372600480360381019061036d9190610f1f565b61085a565b60405161037f9190611143565b60405180910390f35b34801561039457600080fd5b5061039d6108a1565b6040516103aa9190611262565b60405180910390f35b3480156103bf57600080fd5b506103c86108ab565b6040516103d59190611262565b60405180910390f35b60007f0000000000000000000000000000000000000000000000000000000000000000905090565b60007f0000000000000000000000000000000000000000000000000000000000000000905090565b7f000000000000000000000000000000000000000000000000000000000000000073ffffffffffffffffffffffffffffffffffffffff163373ffffffffffffffffffffffffffffffffffffffff16146104e057337f00000000000000000000000000000000000000000000000000000000000000006040517f1cf993f40000000000000000000000000000000000000000000000000000000081526004016104d792919061115e565b60405180910390fd5b6104ea82826108b7565b5050565b60006104f8610ae8565b9050806105665747600080549050600160149054906101000a900460ff1660018111156105285761052761157d565b5b6040517f6f118e9000000000000000000000000000000000000000000000000000000000815260040161055d9392919061127d565b60405180910390fd5b61056e610b90565b505050565b6000600160009054906101000a900473ffffffffffffffffffffffffffffffffffffffff16905090565b6000600163ffffffff16905090565b6000600361ffff16905090565b6000600160149054906101000a900460ff16905090565b600060606105dc610ae8565b91509250929050565b6060600080548060200260200160405190810160405280929190818152602001828054801561066957602002820191906000526020600020905b8160009054906101000a900473ffffffffffffffffffffffffffffffffffffffff1673ffffffffffffffffffffffffffffffffffffffff168152602001906001019080831161061f575b5050505050905090565b60007f0000000000000000000000000000000000000000000000000000000000000000905090565b60007f0000000000000000000000000000000000000000000000000000000000000000905090565b600060018111156106d7576106d661157d565b5b600160149054906101000a900460ff1660018111156106f9576106f861157d565b5b14610730576040517f732acd4a00000000000000000000000000000000000000000000000000000000815260040160405180910390fd5b7f000000000000000000000000000000000000000000000000000000000000000034101561078a576040517f2cb3fd1800000000000000000000000000000000000000000000000000000000815260040160405180910390fd5b6000339080600181540180825580915050600190039060005260206000200160009091909190916101000a81548173ffffffffffffffffffffffffffffffffffffffff021916908373ffffffffffffffffffffffffffffffffffffffff1602179055503373ffffffffffffffffffffffffffffffffffffffff167f1d64fb5ba9f2548c5b98468d58f25b87b9e866afee0122e92d9fe722bf85076c60405160405180910390a2565b60007f0000000000000000000000000000000000000000000000000000000000000000905090565b600080828154811061086f5761086e6115ac565b5b9060005260206000200160009054906101000a900473ffffffffffffffffffffffffffffffffffffffff169050919050565b6000600254905090565b60008080549050905090565b60008080549050826000815181106108d2576108d16115ac565b5b60200260200101516108e491906114ee565b905060008082815481106108fb576108fa6115ac565b5b9060005260206000200160009054906101000a900473ffffffffffffffffffffffffffffffffffffffff16905080600160006101000a81548173ffffffffffffffffffffffffffffffffffffffff021916908373ffffffffffffffffffffffffffffffffffffffff16021790555060008173ffffffffffffffffffffffffffffffffffffffff164760405161098f9061112e565b60006040518083038185875af1925050503d80600081146109cc576040519150601f19603f3d011682016040523d82523d6000602084013e6109d1565b606091505b5050905080610a0c576040517faca80e4300000000000000000000000000000000000000000000000000000000815260040160405180910390fd5b600067ffffffffffffffff811115610a2757610a266115db565b5b604051908082528060200260200182016040528015610a555781602001602082028036833780820191505090505b5060009080519060200190610a6b929190610d0d565b506000600160146101000a81548160ff02191690836001811115610a9257610a9161157d565b5b0217905550426002819055508173ffffffffffffffffffffffffffffffffffffffff167f5b690ec4a06fe979403046eaeea5b3ce38524683c3001f662c8b5a829632f7df60405160405180910390a25050505050565b600080600160149054906101000a900460ff166001811115610b0d57610b0c61157d565b5b60006001811115610b2157610b2061157d565b5b14905060007f000000000000000000000000000000000000000000000000000000000000000060025442610b55919061139b565b11905060008060008054905011905060008047119050838015610b755750825b8015610b7e5750815b8015610b875750805b94505050505090565b60018060146101000a81548160ff02191690836001811115610bb557610bb461157d565b5b021790555060007f000000000000000000000000000000000000000000000000000000000000000073ffffffffffffffffffffffffffffffffffffffff16635d3b1d307f00000000000000000000000000000000000000000000000000000000000000007f000000000000000000000000000000000000000000000000000000000000000060037f000000000000000000000000000000000000000000000000000000000000000060016040518663ffffffff1660e01b8152600401610c7f9594939291906111f4565b602060405180830381600087803b158015610c9957600080fd5b505af1158015610cad573d6000803e3d6000fd5b505050506040513d601f19601f82011682018060405250810190610cd19190610f4c565b90507febf56642252004c18a776f30d528e7a0ce8c5db14b6596fb6550f630c8a24c6c81604051610d029190611262565b60405180910390a150565b828054828255906000526020600020908101928215610d86579160200282015b82811115610d855782518260006101000a81548173ffffffffffffffffffffffffffffffffffffffff021916908373ffffffffffffffffffffffffffffffffffffffff16021790555091602001919060010190610d2d565b5b509050610d939190610d97565b5090565b5b80821115610db0576000816000905550600101610d98565b5090565b6000610dc7610dc28461130f565b6112ea565b90508083825260208201905082856020860282011115610dea57610de9611614565b5b60005b85811015610e1a5781610e008882610ea8565b845260208401935060208301925050600181019050610ded565b5050509392505050565b600082601f830112610e3957610e3861160f565b5b8135610e49848260208601610db4565b91505092915050565b60008083601f840112610e6857610e6761160f565b5b8235905067ffffffffffffffff811115610e8557610e8461160a565b5b602083019150836001820283011115610ea157610ea0611614565b5b9250929050565b600081359050610eb78161164b565b92915050565b600081519050610ecc8161164b565b92915050565b60008060208385031215610ee957610ee861161e565b5b600083013567ffffffffffffffff811115610f0757610f06611619565b5b610f1385828601610e52565b92509250509250929050565b600060208284031215610f3557610f3461161e565b5b6000610f4384828501610ea8565b91505092915050565b600060208284031215610f6257610f6161161e565b5b6000610f7084828501610ebd565b91505092915050565b60008060408385031215610f9057610f8f61161e565b5b6000610f9e85828601610ea8565b925050602083013567ffffffffffffffff811115610fbf57610fbe611619565b5b610fcb85828601610e24565b9150509250929050565b6000610fe18383610fed565b60208301905092915050565b610ff6816113e1565b82525050565b611005816113cf565b82525050565b60006110168261134b565b611020818561136e565b935061102b8361133b565b8060005b8381101561105c5781516110438882610fd5565b975061104e83611361565b92505060018101905061102f565b5085935050505092915050565b611072816113f3565b82525050565b611081816113ff565b82525050565b600061109282611356565b61109c818561137f565b93506110ac81856020860161148a565b6110b581611623565b840191505092915050565b6110c981611478565b82525050565b60006110dc600083611390565b91506110e782611634565b600082019050919050565b6110fb8161141c565b82525050565b61110a8161144a565b82525050565b61111981611454565b82525050565b61112881611464565b82525050565b6000611139826110cf565b9150819050919050565b60006020820190506111586000830184610ffc565b92915050565b60006040820190506111736000830185610ffc565b6111806020830184610ffc565b9392505050565b600060208201905081810360008301526111a1818461100b565b905092915050565b60006040820190506111be6000830185611069565b81810360208301526111d08184611087565b90509392505050565b60006020820190506111ee6000830184611078565b92915050565b600060a0820190506112096000830188611078565b611216602083018761111f565b61122360408301866110f2565b6112306060830185611110565b61123d6080830184611110565b9695505050505050565b600060208201905061125c60008301846110c0565b92915050565b60006020820190506112776000830184611101565b92915050565b60006060820190506112926000830186611101565b61129f6020830185611101565b6112ac6040830184611101565b949350505050565b60006020820190506112c96000830184611110565b92915050565b60006020820190506112e4600083018461111f565b92915050565b60006112f4611305565b905061130082826114bd565b919050565b6000604051905090565b600067ffffffffffffffff82111561132a576113296115db565b5b602082029050602081019050919050565b6000819050602082019050919050565b600081519050919050565b600081519050919050565b6000602082019050919050565b600082825260208201905092915050565b600082825260208201905092915050565b600081905092915050565b60006113a68261144a565b91506113b18361144a565b9250828210156113c4576113c361151f565b5b828203905092915050565b60006113da8261142a565b9050919050565b60006113ec8261142a565b9050919050565b60008115159050919050565b6000819050919050565b600081905061141782611637565b919050565b600061ffff82169050919050565b600073ffffffffffffffffffffffffffffffffffffffff82169050919050565b6000819050919050565b600063ffffffff82169050919050565b600067ffffffffffffffff82169050919050565b600061148382611409565b9050919050565b60005b838110156114a857808201518184015260208101905061148d565b838111156114b7576000848401525b50505050565b6114c682611623565b810181811067ffffffffffffffff821117156114e5576114e46115db565b5b80604052505050565b60006114f98261144a565b91506115048361144a565b9250826115145761151361154e565b5b828206905092915050565b7f4e487b7100000000000000000000000000000000000000000000000000000000600052601160045260246000fd5b7f4e487b7100000000000000000000000000000000000000000000000000000000600052601260045260246000fd5b7f4e487b7100000000000000000000000000000000000000000000000000000000600052602160045260246000fd5b7f4e487b7100000000000000000000000000000000000000000000000000000000600052603260045260246000fd5b7f4e487b7100000000000000000000000000000000000000000000000000000000600052604160045260246000fd5b600080fd5b600080fd5b600080fd5b600080fd5b600080fd5b6000601f19601f8301169050919050565b50565b600281106116485761164761157d565b5b50565b6116548161144a565b811461165f57600080fd5b5056fea26469706673582212203c8e0337cbb76dfe5081e43c8db9462ccd3d97915eb44b3ebca89fce6d40bf0464736f6c63430008070033",
  "devdoc": {
    "kind": "dev",
    "methods": {
      "checkUpkeep(bytes)": {
        "details": "To ensure that it is never called, you may want to add the cannotExecute modifier from KeeperBase to your implementation of this method.",
        "params": {
          "checkData": "specified in the upkeep registration so it is always the same for a registered upkeep. This can easily be broken down into specific arguments using `abi.decode`, so multiple upkeeps can be registered on the same contract and easily differentiated by the contract."
        },
        "returns": {
          "_1": "bytes that the keeper should call performUpkeep with, if upkeep is needed. If you would like to encode data to decode later, try `abi.encode`.",
          "upkeepNeeded": "boolean to indicate whether the keeper should call performUpkeep or not."
        }
      }
    },
    "version": 1
  },
  "userdoc": {
    "kind": "user",
    "methods": {
      "checkUpkeep(bytes)": {
        "notice": "method that is simulated by the keepers to see if any work actually needs to be performed. This method does does not actually need to be executable, and since it is only ever simulated it can consume lots of gas."
      }
    },
    "version": 1
  },
  "storageLayout": {
    "storage": [
      {
        "astId": 203,
        "contract": "contracts/Lottery.sol:Lottery",
        "label": "s_players",
        "offset": 0,
        "slot": "0",
        "type": "t_array(t_address_payable)dyn_storage"
      },
      {
        "astId": 222,
        "contract": "contracts/Lottery.sol:Lottery",
        "label": "s_recentWinner",
        "offset": 0,
        "slot": "1",
        "type": "t_address"
      },
      {
        "astId": 225,
        "contract": "contracts/Lottery.sol:Lottery",
        "label": "s_lotteryState",
        "offset": 20,
        "slot": "1",
        "type": "t_enum(LotteryState)198"
      },
      {
        "astId": 227,
        "contract": "contracts/Lottery.sol:Lottery",
        "label": "s_lastTimestamp",
        "offset": 0,
        "slot": "2",
        "type": "t_uint256"
      }
    ],
    "types": {
      "t_address": {
        "encoding": "inplace",
        "label": "address",
        "numberOfBytes": "20"
      },
      "t_address_payable": {
        "encoding": "inplace",
        "label": "address payable",
        "numberOfBytes": "20"
      },
      "t_array(t_address_payable)dyn_storage": {
        "base": "t_address_payable",
        "encoding": "dynamic_array",
        "label": "address payable[]",
        "numberOfBytes": "32"
      },
      "t_enum(LotteryState)198": {
        "encoding": "inplace",
        "label": "enum Lottery.LotteryState",
        "numberOfBytes": "1"
      },
      "t_uint256": {
        "encoding": "inplace",
        "label": "uint256",
        "numberOfBytes": "32"
      }
    }
  }
}