{
  "address": "0xCf7Ed3AccA5a467e9e704C703E8D87F634fB0Fc9",
  "abi": [
    {
      "inputs": [
        {
          "internalType": "address",
          "name": "vrfCoordinatorV2",
          "type": "address"
        },
        {
          "internalType": "uint256",
          "name": "entranceFee",
          "type": "uint256"
        },
        {
          "internalType": "bytes32",
          "name": "gasLane",
          "type": "bytes32"
        },
        {
          "internalType": "uint64",
          "name": "subscriptionId",
          "type": "uint64"
        },
        {
          "internalType": "uint32",
          "name": "callbackGasLimit",
          "type": "uint32"
        },
        {
          "internalType": "uint256",
          "name": "interval",
          "type": "uint256"
        }
      ],
      "stateMutability": "nonpayable",
      "type": "constructor"
    },
    {
      "inputs": [],
      "name": "Lottery_NotEnoughFeeEntered",
      "type": "error"
    },
    {
      "inputs": [],
      "name": "Lottery_NotOpen",
      "type": "error"
    },
    {
      "inputs": [],
      "name": "Lottery_TransferFailed",
      "type": "error"
    },
    {
      "inputs": [
        {
          "internalType": "uint256",
          "name": "currentBalance",
          "type": "uint256"
        },
        {
          "internalType": "uint256",
          "name": "numOfPlayers",
          "type": "uint256"
        },
        {
          "internalType": "uint256",
          "name": "contractState",
          "type": "uint256"
        }
      ],
      "name": "Lottery_UpkeepNotNeeded",
      "type": "error"
    },
    {
      "inputs": [
        {
          "internalType": "address",
          "name": "have",
          "type": "address"
        },
        {
          "internalType": "address",
          "name": "want",
          "type": "address"
        }
      ],
      "name": "OnlyCoordinatorCanFulfill",
      "type": "error"
    },
    {
      "anonymous": false,
      "inputs": [
        {
          "indexed": true,
          "internalType": "address",
          "name": "player",
          "type": "address"
        }
      ],
      "name": "LotteryEnter",
      "type": "event"
    },
    {
      "anonymous": false,
      "inputs": [
        {
          "indexed": false,
          "internalType": "uint256",
          "name": "requestId",
          "type": "uint256"
        }
      ],
      "name": "RequestedLotteryWinner",
      "type": "event"
    },
    {
      "anonymous": false,
      "inputs": [
        {
          "indexed": true,
          "internalType": "address",
          "name": "winner",
          "type": "address"
        }
      ],
      "name": "WinnerPicked",
      "type": "event"
    },
    {
      "inputs": [
        {
          "internalType": "bytes",
          "name": "checkData",
          "type": "bytes"
        }
      ],
      "name": "checkUpkeep",
      "outputs": [
        {
          "internalType": "bool",
          "name": "upkeepNeeded",
          "type": "bool"
        },
        {
          "internalType": "bytes",
          "name": "performData",
          "type": "bytes"
        }
      ],
      "stateMutability": "nonpayable",
      "type": "function"
    },
    {
      "inputs": [],
      "name": "enterLottery",
      "outputs": [],
      "stateMutability": "payable",
      "type": "function"
    },
    {
      "inputs": [],
      "name": "getEntranceFee",
      "outputs": [
        {
          "internalType": "uint256",
          "name": "",
          "type": "uint256"
        }
      ],
      "stateMutability": "view",
      "type": "function"
    },
    {
      "inputs": [],
      "name": "getLatestTimestamp",
      "outputs": [
        {
          "internalType": "uint256",
          "name": "",
          "type": "uint256"
        }
      ],
      "stateMutability": "view",
      "type": "function"
    },
    {
      "inputs": [],
      "name": "getLotteryState",
      "outputs": [
        {
          "internalType": "enum Lottery.LotteryState",
          "name": "",
          "type": "uint8"
        }
      ],
      "stateMutability": "view",
      "type": "function"
    },
    {
      "inputs": [],
      "name": "getNumWords",
      "outputs": [
        {
          "internalType": "uint256",
          "name": "",
          "type": "uint256"
        }
      ],
      "stateMutability": "pure",
      "type": "function"
    },
    {
      "inputs": [],
      "name": "getNumberOfPlayers",
      "outputs": [
        {
          "internalType": "uint256",
          "name": "",
          "type": "uint256"
        }
      ],
      "stateMutability": "view",
      "type": "function"
    },
    {
      "inputs": [],
      "name": "getPlayers",
      "outputs": [
        {
          "internalType": "address payable[]",
          "name": "",
          "type": "address[]"
        }
      ],
      "stateMutability": "view",
      "type": "function"
    },
    {
      "inputs": [],
      "name": "getRecentWinner",
      "outputs": [
        {
          "internalType": "address",
          "name": "",
          "type": "address"
        }
      ],
      "stateMutability": "view",
      "type": "function"
    },
    {
      "inputs": [],
      "name": "getRequestConfirmations",
      "outputs": [
        {
          "internalType": "uint256",
          "name": "",
          "type": "uint256"
        }
      ],
      "stateMutability": "pure",
      "type": "function"
    },
    {
      "inputs": [
        {
          "internalType": "bytes",
          "name": "",
          "type": "bytes"
        }
      ],
      "name": "performUpkeep",
      "outputs": [],
      "stateMutability": "nonpayable",
      "type": "function"
    },
    {
      "inputs": [
        {
          "internalType": "uint256",
          "name": "requestId",
          "type": "uint256"
        },
        {
          "internalType": "uint256[]",
          "name": "randomWords",
          "type": "uint256[]"
        }
      ],
      "name": "rawFulfillRandomWords",
      "outputs": [],
      "stateMutability": "nonpayable",
      "type": "function"
    }
  ],
  "transactionHash": "0xb9e304130ef6524246df03037d2d71e8f0a66c0150beeb2bf50f4058557a634d",
  "args": [
    "0x5FbDB2315678afecb367f032d93F642f64180aa3",
    "1000000000000000",
    "0x474e34a077df58807dbe9c96d3c009b23b3c6d0cce433e59bbf5b34f823bc56c",
    "1",
    "500000",
    "30"
  ],
  "numDeployments": 1,
  "solcInputHash": "afc1e10309ab77db1beb44d33af12555",
  "bytecode": "0x6101606040523480156200001257600080fd5b5060405162001820380380620018208339818101604052810190620000389190620001ad565b858073ffffffffffffffffffffffffffffffffffffffff1660808173ffffffffffffffffffffffffffffffffffffffff1660601b81525050508460a081815250508573ffffffffffffffffffffffffffffffffffffffff1660c08173ffffffffffffffffffffffffffffffffffffffff1660601b815250508360e081815250508267ffffffffffffffff166101008167ffffffffffffffff1660c01b815250508163ffffffff166101208163ffffffff1660e01b815250506000600160146101000a81548160ff02191690836001811115620001195762000118620002b5565b5b0217905550426002819055508061014081815250505050505050506200036b565b6000815190506200014b81620002e9565b92915050565b600081519050620001628162000303565b92915050565b60008151905062000179816200031d565b92915050565b600081519050620001908162000337565b92915050565b600081519050620001a78162000351565b92915050565b60008060008060008060c08789031215620001cd57620001cc620002e4565b5b6000620001dd89828a016200013a565b9650506020620001f089828a0162000168565b95505060406200020389828a0162000151565b94505060606200021689828a0162000196565b93505060806200022989828a016200017f565b92505060a06200023c89828a0162000168565b9150509295509295509295565b6000620002568262000267565b9050919050565b6000819050919050565b600073ffffffffffffffffffffffffffffffffffffffff82169050919050565b6000819050919050565b600063ffffffff82169050919050565b600067ffffffffffffffff82169050919050565b7f4e487b7100000000000000000000000000000000000000000000000000000000600052602160045260246000fd5b600080fd5b620002f48162000249565b81146200030057600080fd5b50565b6200030e816200025d565b81146200031a57600080fd5b50565b620003288162000287565b81146200033457600080fd5b50565b620003428162000291565b81146200034e57600080fd5b50565b6200035c81620002a1565b81146200036857600080fd5b50565b60805160601c60a05160c05160601c60e0516101005160c01c6101205160e01c61014051611440620003e0600039600061094e01526000610a6401526000610a4101526000610a20015260006109e40152600081816102a201526105c70152600081816102c8015261031c01526114406000f3fe6080604052600436106100a75760003560e01c80636b68c03c116100645780636b68c03c146101aa5780636e04ff0d146101d55780638b5b9ccc14610213578063c1af57851461023e578063f43b52cb14610248578063fd6673f514610273576100a7565b806309bc33a7146100ac5780631fe543e3146100d75780634585e33b14610100578063473f1ddc1461012957806353a2c19a146101545780635f1b0fd81461017f575b600080fd5b3480156100b857600080fd5b506100c161029e565b6040516100ce9190611040565b60405180910390f35b3480156100e357600080fd5b506100fe60048036038101906100f99190610d72565b6102c6565b005b34801561010c57600080fd5b5061012760048036038101906101229190610cf8565b610386565b005b34801561013557600080fd5b5061013e61040b565b60405161014b9190610f3c565b60405180910390f35b34801561016057600080fd5b50610169610435565b6040516101769190611040565b60405180910390f35b34801561018b57600080fd5b50610194610444565b6040516101a19190611040565b60405180910390f35b3480156101b657600080fd5b506101bf610451565b6040516101cc9190611025565b60405180910390f35b3480156101e157600080fd5b506101fc60048036038101906101f79190610cf8565b610468565b60405161020a929190610fa2565b60405180910390f35b34801561021f57600080fd5b506102286104ca565b6040516102359190610f80565b60405180910390f35b610246610558565b005b34801561025457600080fd5b5061025d6106c7565b60405161026a9190611040565b60405180910390f35b34801561027f57600080fd5b506102886106d1565b6040516102959190611040565b60405180910390f35b60007f0000000000000000000000000000000000000000000000000000000000000000905090565b7f000000000000000000000000000000000000000000000000000000000000000073ffffffffffffffffffffffffffffffffffffffff163373ffffffffffffffffffffffffffffffffffffffff161461037857337f00000000000000000000000000000000000000000000000000000000000000006040517f1cf993f400000000000000000000000000000000000000000000000000000000815260040161036f929190610f57565b60405180910390fd5b61038282826106dd565b5050565b600061039061090e565b9050806103fe5747600080549050600160149054906101000a900460ff1660018111156103c0576103bf611325565b5b6040517f6f118e900000000000000000000000000000000000000000000000000000000081526004016103f59392919061105b565b60405180910390fd5b6104066109b6565b505050565b6000600160009054906101000a900473ffffffffffffffffffffffffffffffffffffffff16905090565b6000600163ffffffff16905090565b6000600361ffff16905090565b6000600160149054906101000a900460ff16905090565b6000606061047461090e565b848481818080601f016020809104026020016040519081016040528093929190818152602001838380828437600081840152601f19601f8201169050808301925050505050505090509050915091509250929050565b6060600080548060200260200160405190810160405280929190818152602001828054801561054e57602002820191906000526020600020905b8160009054906101000a900473ffffffffffffffffffffffffffffffffffffffff1673ffffffffffffffffffffffffffffffffffffffff1681526020019060010190808311610504575b5050505050905090565b6000600181111561056c5761056b611325565b5b600160149054906101000a900460ff16600181111561058e5761058d611325565b5b146105c5576040517f732acd4a00000000000000000000000000000000000000000000000000000000815260040160405180910390fd5b7f000000000000000000000000000000000000000000000000000000000000000034101561061f576040517f2cb3fd1800000000000000000000000000000000000000000000000000000000815260040160405180910390fd5b6000339080600181540180825580915050600190039060005260206000200160009091909190916101000a81548173ffffffffffffffffffffffffffffffffffffffff021916908373ffffffffffffffffffffffffffffffffffffffff1602179055503373ffffffffffffffffffffffffffffffffffffffff167f1d64fb5ba9f2548c5b98468d58f25b87b9e866afee0122e92d9fe722bf85076c60405160405180910390a2565b6000600254905090565b60008080549050905090565b60008080549050826000815181106106f8576106f7611354565b5b602002602001015161070a9190611296565b9050600080828154811061072157610720611354565b5b9060005260206000200160009054906101000a900473ffffffffffffffffffffffffffffffffffffffff16905080600160006101000a81548173ffffffffffffffffffffffffffffffffffffffff021916908373ffffffffffffffffffffffffffffffffffffffff16021790555060008173ffffffffffffffffffffffffffffffffffffffff16476040516107b590610f27565b60006040518083038185875af1925050503d80600081146107f2576040519150601f19603f3d011682016040523d82523d6000602084013e6107f7565b606091505b5050905080610832576040517faca80e4300000000000000000000000000000000000000000000000000000000815260040160405180910390fd5b600067ffffffffffffffff81111561084d5761084c611383565b5b60405190808252806020026020018201604052801561087b5781602001602082028036833780820191505090505b5060009080519060200190610891929190610b33565b506000600160146101000a81548160ff021916908360018111156108b8576108b7611325565b5b0217905550426002819055508173ffffffffffffffffffffffffffffffffffffffff167f5b690ec4a06fe979403046eaeea5b3ce38524683c3001f662c8b5a829632f7df60405160405180910390a25050505050565b600080600160149054906101000a900460ff16600181111561093357610932611325565b5b6000600181111561094757610946611325565b5b14905060007f00000000000000000000000000000000000000000000000000000000000000006002544261097b9190611143565b1190506000806000805490501190506000804711905083801561099b5750825b80156109a45750815b80156109ad5750805b94505050505090565b60018060146101000a81548160ff021916908360018111156109db576109da611325565b5b021790555060007f000000000000000000000000000000000000000000000000000000000000000073ffffffffffffffffffffffffffffffffffffffff16635d3b1d307f00000000000000000000000000000000000000000000000000000000000000007f000000000000000000000000000000000000000000000000000000000000000060037f000000000000000000000000000000000000000000000000000000000000000060016040518663ffffffff1660e01b8152600401610aa5959493929190610fd2565b602060405180830381600087803b158015610abf57600080fd5b505af1158015610ad3573d6000803e3d6000fd5b505050506040513d601f19601f82011682018060405250810190610af79190610d45565b90507febf56642252004c18a776f30d528e7a0ce8c5db14b6596fb6550f630c8a24c6c81604051610b289190611040565b60405180910390a150565b828054828255906000526020600020908101928215610bac579160200282015b82811115610bab5782518260006101000a81548173ffffffffffffffffffffffffffffffffffffffff021916908373ffffffffffffffffffffffffffffffffffffffff16021790555091602001919060010190610b53565b5b509050610bb99190610bbd565b5090565b5b80821115610bd6576000816000905550600101610bbe565b5090565b6000610bed610be8846110b7565b611092565b90508083825260208201905082856020860282011115610c1057610c0f6113bc565b5b60005b85811015610c405781610c268882610cce565b845260208401935060208301925050600181019050610c13565b5050509392505050565b600082601f830112610c5f57610c5e6113b7565b5b8135610c6f848260208601610bda565b91505092915050565b60008083601f840112610c8e57610c8d6113b7565b5b8235905067ffffffffffffffff811115610cab57610caa6113b2565b5b602083019150836001820283011115610cc757610cc66113bc565b5b9250929050565b600081359050610cdd816113f3565b92915050565b600081519050610cf2816113f3565b92915050565b60008060208385031215610d0f57610d0e6113c6565b5b600083013567ffffffffffffffff811115610d2d57610d2c6113c1565b5b610d3985828601610c78565b92509250509250929050565b600060208284031215610d5b57610d5a6113c6565b5b6000610d6984828501610ce3565b91505092915050565b60008060408385031215610d8957610d886113c6565b5b6000610d9785828601610cce565b925050602083013567ffffffffffffffff811115610db857610db76113c1565b5b610dc485828601610c4a565b9150509250929050565b6000610dda8383610de6565b60208301905092915050565b610def81611189565b82525050565b610dfe81611177565b82525050565b6000610e0f826110f3565b610e198185611116565b9350610e24836110e3565b8060005b83811015610e55578151610e3c8882610dce565b9750610e4783611109565b925050600181019050610e28565b5085935050505092915050565b610e6b8161119b565b82525050565b610e7a816111a7565b82525050565b6000610e8b826110fe565b610e958185611127565b9350610ea5818560208601611232565b610eae816113cb565b840191505092915050565b610ec281611220565b82525050565b6000610ed5600083611138565b9150610ee0826113dc565b600082019050919050565b610ef4816111c4565b82525050565b610f03816111f2565b82525050565b610f12816111fc565b82525050565b610f218161120c565b82525050565b6000610f3282610ec8565b9150819050919050565b6000602082019050610f516000830184610df5565b92915050565b6000604082019050610f6c6000830185610df5565b610f796020830184610df5565b9392505050565b60006020820190508181036000830152610f9a8184610e04565b905092915050565b6000604082019050610fb76000830185610e62565b8181036020830152610fc98184610e80565b90509392505050565b600060a082019050610fe76000830188610e71565b610ff46020830187610f18565b6110016040830186610eeb565b61100e6060830185610f09565b61101b6080830184610f09565b9695505050505050565b600060208201905061103a6000830184610eb9565b92915050565b60006020820190506110556000830184610efa565b92915050565b60006060820190506110706000830186610efa565b61107d6020830185610efa565b61108a6040830184610efa565b949350505050565b600061109c6110ad565b90506110a88282611265565b919050565b6000604051905090565b600067ffffffffffffffff8211156110d2576110d1611383565b5b602082029050602081019050919050565b6000819050602082019050919050565b600081519050919050565b600081519050919050565b6000602082019050919050565b600082825260208201905092915050565b600082825260208201905092915050565b600081905092915050565b600061114e826111f2565b9150611159836111f2565b92508282101561116c5761116b6112c7565b5b828203905092915050565b6000611182826111d2565b9050919050565b6000611194826111d2565b9050919050565b60008115159050919050565b6000819050919050565b60008190506111bf826113df565b919050565b600061ffff82169050919050565b600073ffffffffffffffffffffffffffffffffffffffff82169050919050565b6000819050919050565b600063ffffffff82169050919050565b600067ffffffffffffffff82169050919050565b600061122b826111b1565b9050919050565b60005b83811015611250578082015181840152602081019050611235565b8381111561125f576000848401525b50505050565b61126e826113cb565b810181811067ffffffffffffffff8211171561128d5761128c611383565b5b80604052505050565b60006112a1826111f2565b91506112ac836111f2565b9250826112bc576112bb6112f6565b5b828206905092915050565b7f4e487b7100000000000000000000000000000000000000000000000000000000600052601160045260246000fd5b7f4e487b7100000000000000000000000000000000000000000000000000000000600052601260045260246000fd5b7f4e487b7100000000000000000000000000000000000000000000000000000000600052602160045260246000fd5b7f4e487b7100000000000000000000000000000000000000000000000000000000600052603260045260246000fd5b7f4e487b7100000000000000000000000000000000000000000000000000000000600052604160045260246000fd5b600080fd5b600080fd5b600080fd5b600080fd5b600080fd5b6000601f19601f8301169050919050565b50565b600281106113f0576113ef611325565b5b50565b6113fc816111f2565b811461140757600080fd5b5056fea2646970667358221220b06ca0249a88162580baa29e80a4b5a0f8339fad0bebbb157b688cfc536f603e64736f6c63430008070033",
  "devdoc": {
    "kind": "dev",
    "methods": {
      "checkUpkeep(bytes)": {
        "details": "To ensure that it is never called, you may want to add the cannotExecute modifier from KeeperBase to your implementation of this method.",
        "params": {
          "checkData": "specified in the upkeep registration so it is always the same for a registered upkeep. This can easily be broken down into specific arguments using `abi.decode`, so multiple upkeeps can be registered on the same contract and easily differentiated by the contract."
        },
        "returns": {
          "performData": "bytes that the keeper should call performUpkeep with, if upkeep is needed. If you would like to encode data to decode later, try `abi.encode`.",
          "upkeepNeeded": "boolean to indicate whether the keeper should call performUpkeep or not."
        }
      }
    },
    "version": 1
  },
  "userdoc": {
    "kind": "user",
    "methods": {
      "checkUpkeep(bytes)": {
        "notice": "method that is simulated by the keepers to see if any work actually needs to be performed. This method does does not actually need to be executable, and since it is only ever simulated it can consume lots of gas."
      }
    },
    "version": 1
  },
  "storageLayout": {
    "storage": [
      {
        "astId": 203,
        "contract": "contracts/Lottery.sol:Lottery",
        "label": "s_players",
        "offset": 0,
        "slot": "0",
        "type": "t_array(t_address_payable)dyn_storage"
      },
      {
        "astId": 222,
        "contract": "contracts/Lottery.sol:Lottery",
        "label": "s_recentWinner",
        "offset": 0,
        "slot": "1",
        "type": "t_address"
      },
      {
        "astId": 225,
        "contract": "contracts/Lottery.sol:Lottery",
        "label": "s_lotteryState",
        "offset": 20,
        "slot": "1",
        "type": "t_enum(LotteryState)198"
      },
      {
        "astId": 227,
        "contract": "contracts/Lottery.sol:Lottery",
        "label": "s_lastTimestamp",
        "offset": 0,
        "slot": "2",
        "type": "t_uint256"
      }
    ],
    "types": {
      "t_address": {
        "encoding": "inplace",
        "label": "address",
        "numberOfBytes": "20"
      },
      "t_address_payable": {
        "encoding": "inplace",
        "label": "address payable",
        "numberOfBytes": "20"
      },
      "t_array(t_address_payable)dyn_storage": {
        "base": "t_address_payable",
        "encoding": "dynamic_array",
        "label": "address payable[]",
        "numberOfBytes": "32"
      },
      "t_enum(LotteryState)198": {
        "encoding": "inplace",
        "label": "enum Lottery.LotteryState",
        "numberOfBytes": "1"
      },
      "t_uint256": {
        "encoding": "inplace",
        "label": "uint256",
        "numberOfBytes": "32"
      }
    }
  }
}